{
  "address": "0x5FbDB2315678afecb367f032d93F642f64180aa3",
  "abi": [
    {
      "inputs": [
        {
          "internalType": "string",
          "name": "_lastname",
          "type": "string"
        },
        {
          "internalType": "string",
          "name": "_firstname",
          "type": "string"
        },
        {
          "internalType": "uint256",
          "name": "_age",
          "type": "uint256"
        }
      ],
      "stateMutability": "nonpayable",
      "type": "constructor"
    },
    {
      "anonymous": false,
      "inputs": [
        {
          "indexed": true,
          "internalType": "address",
          "name": "previousOwner",
          "type": "address"
        },
        {
          "indexed": true,
          "internalType": "address",
          "name": "newOwner",
          "type": "address"
        }
      ],
      "name": "OwnershipTransferred",
      "type": "event"
    },
    {
      "inputs": [
        {
          "internalType": "address",
          "name": "_address",
          "type": "address"
        },
        {
          "internalType": "string",
          "name": "_lastname",
          "type": "string"
        },
        {
          "internalType": "string",
          "name": "_firstname",
          "type": "string"
        },
        {
          "internalType": "uint256",
          "name": "_age",
          "type": "uint256"
        }
      ],
      "name": "addPerson",
      "outputs": [],
      "stateMutability": "nonpayable",
      "type": "function"
    },
    {
      "inputs": [
        {
          "internalType": "address",
          "name": "_address",
          "type": "address"
        }
      ],
      "name": "getPerson",
      "outputs": [
        {
          "components": [
            {
              "internalType": "string",
              "name": "lastName",
              "type": "string"
            },
            {
              "internalType": "string",
              "name": "firstName",
              "type": "string"
            },
            {
              "internalType": "uint256",
              "name": "age",
              "type": "uint256"
            }
          ],
          "internalType": "struct Identification.Person",
          "name": "",
          "type": "tuple"
        }
      ],
      "stateMutability": "view",
      "type": "function"
    },
    {
      "inputs": [],
      "name": "owner",
      "outputs": [
        {
          "internalType": "address",
          "name": "",
          "type": "address"
        }
      ],
      "stateMutability": "view",
      "type": "function"
    },
    {
      "inputs": [],
      "name": "renounceOwnership",
      "outputs": [],
      "stateMutability": "nonpayable",
      "type": "function"
    },
    {
      "inputs": [
        {
          "internalType": "address",
          "name": "newOwner",
          "type": "address"
        }
      ],
      "name": "transferOwnership",
      "outputs": [],
      "stateMutability": "nonpayable",
      "type": "function"
    }
  ],
  "transactionHash": "0x686d78be6fe45b21413226c740bc6bd202fc4779a1c678c5f37dad7e70bb0bf4",
  "args": [
    "faruch",
    "greg",
    50
  ],
  "numDeployments": 1,
  "solcInputHash": "7991a918aaaa1262f6d673653fcd7072",
  "bytecode": "0x60806040523480156200001157600080fd5b50604051620014b0380380620014b0833981810160405281019062000037919062000391565b620000576200004b620000f760201b60201c565b620000ff60201b60201c565b604051806060016040528084815260200183815260200182815250600160003373ffffffffffffffffffffffffffffffffffffffff1673ffffffffffffffffffffffffffffffffffffffff1681526020019081526020016000206000820151816000019081620000c891906200066c565b506020820151816001019081620000e091906200066c565b506040820151816002015590505050505062000753565b600033905090565b60008060009054906101000a900473ffffffffffffffffffffffffffffffffffffffff169050816000806101000a81548173ffffffffffffffffffffffffffffffffffffffff021916908373ffffffffffffffffffffffffffffffffffffffff1602179055508173ffffffffffffffffffffffffffffffffffffffff168173ffffffffffffffffffffffffffffffffffffffff167f8be0079c531659141344cd1fd0a4f28419497f9722a3daafe3b4186f6b6457e060405160405180910390a35050565b6000604051905090565b600080fd5b600080fd5b600080fd5b600080fd5b6000601f19601f8301169050919050565b7f4e487b7100000000000000000000000000000000000000000000000000000000600052604160045260246000fd5b6200022c82620001e1565b810181811067ffffffffffffffff821117156200024e576200024d620001f2565b5b80604052505050565b600062000263620001c3565b905062000271828262000221565b919050565b600067ffffffffffffffff821115620002945762000293620001f2565b5b6200029f82620001e1565b9050602081019050919050565b60005b83811015620002cc578082015181840152602081019050620002af565b60008484015250505050565b6000620002ef620002e98462000276565b62000257565b9050828152602081018484840111156200030e576200030d620001dc565b5b6200031b848285620002ac565b509392505050565b600082601f8301126200033b576200033a620001d7565b5b81516200034d848260208601620002d8565b91505092915050565b6000819050919050565b6200036b8162000356565b81146200037757600080fd5b50565b6000815190506200038b8162000360565b92915050565b600080600060608486031215620003ad57620003ac620001cd565b5b600084015167ffffffffffffffff811115620003ce57620003cd620001d2565b5b620003dc8682870162000323565b935050602084015167ffffffffffffffff8111156200040057620003ff620001d2565b5b6200040e8682870162000323565b925050604062000421868287016200037a565b9150509250925092565b600081519050919050565b7f4e487b7100000000000000000000000000000000000000000000000000000000600052602260045260246000fd5b600060028204905060018216806200047e57607f821691505b60208210810362000494576200049362000436565b5b50919050565b60008190508160005260206000209050919050565b60006020601f8301049050919050565b600082821b905092915050565b600060088302620004fe7fffffffffffffffffffffffffffffffffffffffffffffffffffffffffffffffff82620004bf565b6200050a8683620004bf565b95508019841693508086168417925050509392505050565b6000819050919050565b60006200054d62000547620005418462000356565b62000522565b62000356565b9050919050565b6000819050919050565b62000569836200052c565b62000581620005788262000554565b848454620004cc565b825550505050565b600090565b6200059862000589565b620005a58184846200055e565b505050565b5b81811015620005cd57620005c16000826200058e565b600181019050620005ab565b5050565b601f8211156200061c57620005e6816200049a565b620005f184620004af565b8101602085101562000601578190505b620006196200061085620004af565b830182620005aa565b50505b505050565b600082821c905092915050565b6000620006416000198460080262000621565b1980831691505092915050565b60006200065c83836200062e565b9150826002028217905092915050565b62000677826200042b565b67ffffffffffffffff811115620006935762000692620001f2565b5b6200069f825462000465565b620006ac828285620005d1565b600060209050601f831160018114620006e45760008415620006cf578287015190505b620006db85826200064e565b8655506200074b565b601f198416620006f4866200049a565b60005b828110156200071e57848901518255600182019150602085019450602081019050620006f7565b868310156200073e57848901516200073a601f8916826200062e565b8355505b6001600288020188555050505b505050505050565b610d4d80620007636000396000f3fe608060405234801561001057600080fd5b50600436106100575760003560e01c8063552d2d5c1461005c578063553c84011461008c578063715018a6146100a85780638da5cb5b146100b2578063f2fde38b146100d0575b600080fd5b610076600480360381019061007191906105b1565b6100ec565b60405161008391906106de565b60405180910390f35b6100a660048036038101906100a19190610861565b610273565b005b6100b0610314565b005b6100ba610328565b6040516100c7919061090f565b60405180910390f35b6100ea60048036038101906100e591906105b1565b610351565b005b6100f461051e565b600160008373ffffffffffffffffffffffffffffffffffffffff1673ffffffffffffffffffffffffffffffffffffffff16815260200190815260200160002060405180606001604052908160008201805461014e90610959565b80601f016020809104026020016040519081016040528092919081815260200182805461017a90610959565b80156101c75780601f1061019c576101008083540402835291602001916101c7565b820191906000526020600020905b8154815290600101906020018083116101aa57829003601f168201915b505050505081526020016001820180546101e090610959565b80601f016020809104026020016040519081016040528092919081815260200182805461020c90610959565b80156102595780601f1061022e57610100808354040283529160200191610259565b820191906000526020600020905b81548152906001019060200180831161023c57829003601f168201915b505050505081526020016002820154815250509050919050565b61027b6103d4565b604051806060016040528084815260200183815260200182815250600160008673ffffffffffffffffffffffffffffffffffffffff1673ffffffffffffffffffffffffffffffffffffffff16815260200190815260200160002060008201518160000190816102ea9190610b36565b5060208201518160010190816103009190610b36565b506040820151816002015590505050505050565b61031c6103d4565b6103266000610452565b565b60008060009054906101000a900473ffffffffffffffffffffffffffffffffffffffff16905090565b6103596103d4565b600073ffffffffffffffffffffffffffffffffffffffff168173ffffffffffffffffffffffffffffffffffffffff16036103c8576040517f08c379a00000000000000000000000000000000000000000000000000000000081526004016103bf90610c8b565b60405180910390fd5b6103d181610452565b50565b6103dc610516565b73ffffffffffffffffffffffffffffffffffffffff166103fa610328565b73ffffffffffffffffffffffffffffffffffffffff1614610450576040517f08c379a000000000000000000000000000000000000000000000000000000000815260040161044790610cf7565b60405180910390fd5b565b60008060009054906101000a900473ffffffffffffffffffffffffffffffffffffffff169050816000806101000a81548173ffffffffffffffffffffffffffffffffffffffff021916908373ffffffffffffffffffffffffffffffffffffffff1602179055508173ffffffffffffffffffffffffffffffffffffffff168173ffffffffffffffffffffffffffffffffffffffff167f8be0079c531659141344cd1fd0a4f28419497f9722a3daafe3b4186f6b6457e060405160405180910390a35050565b600033905090565b60405180606001604052806060815260200160608152602001600081525090565b6000604051905090565b600080fd5b600080fd5b600073ffffffffffffffffffffffffffffffffffffffff82169050919050565b600061057e82610553565b9050919050565b61058e81610573565b811461059957600080fd5b50565b6000813590506105ab81610585565b92915050565b6000602082840312156105c7576105c6610549565b5b60006105d58482850161059c565b91505092915050565b600081519050919050565b600082825260208201905092915050565b60005b838110156106185780820151818401526020810190506105fd565b60008484015250505050565b6000601f19601f8301169050919050565b6000610640826105de565b61064a81856105e9565b935061065a8185602086016105fa565b61066381610624565b840191505092915050565b6000819050919050565b6106818161066e565b82525050565b600060608301600083015184820360008601526106a48282610635565b915050602083015184820360208601526106be8282610635565b91505060408301516106d36040860182610678565b508091505092915050565b600060208201905081810360008301526106f88184610687565b905092915050565b600080fd5b600080fd5b7f4e487b7100000000000000000000000000000000000000000000000000000000600052604160045260246000fd5b61074282610624565b810181811067ffffffffffffffff821117156107615761076061070a565b5b80604052505050565b600061077461053f565b90506107808282610739565b919050565b600067ffffffffffffffff8211156107a05761079f61070a565b5b6107a982610624565b9050602081019050919050565b82818337600083830152505050565b60006107d86107d384610785565b61076a565b9050828152602081018484840111156107f4576107f3610705565b5b6107ff8482856107b6565b509392505050565b600082601f83011261081c5761081b610700565b5b813561082c8482602086016107c5565b91505092915050565b61083e8161066e565b811461084957600080fd5b50565b60008135905061085b81610835565b92915050565b6000806000806080858703121561087b5761087a610549565b5b60006108898782880161059c565b945050602085013567ffffffffffffffff8111156108aa576108a961054e565b5b6108b687828801610807565b935050604085013567ffffffffffffffff8111156108d7576108d661054e565b5b6108e387828801610807565b92505060606108f48782880161084c565b91505092959194509250565b61090981610573565b82525050565b60006020820190506109246000830184610900565b92915050565b7f4e487b7100000000000000000000000000000000000000000000000000000000600052602260045260246000fd5b6000600282049050600182168061097157607f821691505b6020821081036109845761098361092a565b5b50919050565b60008190508160005260206000209050919050565b60006020601f8301049050919050565b600082821b905092915050565b6000600883026109ec7fffffffffffffffffffffffffffffffffffffffffffffffffffffffffffffffff826109af565b6109f686836109af565b95508019841693508086168417925050509392505050565b6000819050919050565b6000610a33610a2e610a298461066e565b610a0e565b61066e565b9050919050565b6000819050919050565b610a4d83610a18565b610a61610a5982610a3a565b8484546109bc565b825550505050565b600090565b610a76610a69565b610a81818484610a44565b505050565b5b81811015610aa557610a9a600082610a6e565b600181019050610a87565b5050565b601f821115610aea57610abb8161098a565b610ac48461099f565b81016020851015610ad3578190505b610ae7610adf8561099f565b830182610a86565b50505b505050565b600082821c905092915050565b6000610b0d60001984600802610aef565b1980831691505092915050565b6000610b268383610afc565b9150826002028217905092915050565b610b3f826105de565b67ffffffffffffffff811115610b5857610b5761070a565b5b610b628254610959565b610b6d828285610aa9565b600060209050601f831160018114610ba05760008415610b8e578287015190505b610b988582610b1a565b865550610c00565b601f198416610bae8661098a565b60005b82811015610bd657848901518255600182019150602085019450602081019050610bb1565b86831015610bf35784890151610bef601f891682610afc565b8355505b6001600288020188555050505b505050505050565b600082825260208201905092915050565b7f4f776e61626c653a206e6577206f776e657220697320746865207a65726f206160008201527f6464726573730000000000000000000000000000000000000000000000000000602082015250565b6000610c75602683610c08565b9150610c8082610c19565b604082019050919050565b60006020820190508181036000830152610ca481610c68565b9050919050565b7f4f776e61626c653a2063616c6c6572206973206e6f7420746865206f776e6572600082015250565b6000610ce1602083610c08565b9150610cec82610cab565b602082019050919050565b60006020820190508181036000830152610d1081610cd4565b905091905056fea26469706673582212202c5ac17cbcdf7779864de8659cf1d411898574ad9c37d9091546c9f241ccbdba64736f6c63430008110033",
  "devdoc": {
    "kind": "dev",
    "methods": {
      "owner()": {
        "details": "Returns the address of the current owner."
      },
      "renounceOwnership()": {
        "details": "Leaves the contract without owner. It will not be possible to call `onlyOwner` functions anymore. Can only be called by the current owner. NOTE: Renouncing ownership will leave the contract without an owner, thereby removing any functionality that is only available to the owner."
      },
      "transferOwnership(address)": {
        "details": "Transfers ownership of the contract to a new account (`newOwner`). Can only be called by the current owner."
      }
    },
    "version": 1
  },
  "userdoc": {
    "kind": "user",
    "methods": {},
    "version": 1
  },
  "storageLayout": {
    "storage": [
      {
        "astId": 7,
        "contract": "contracts/Identification.sol:Identification",
        "label": "_owner",
        "offset": 0,
        "slot": "0",
        "type": "t_address"
      },
      {
        "astId": 151,
        "contract": "contracts/Identification.sol:Identification",
        "label": "persons",
        "offset": 0,
        "slot": "1",
        "type": "t_mapping(t_address,t_struct(Person)146_storage)"
      }
    ],
    "types": {
      "t_address": {
        "encoding": "inplace",
        "label": "address",
        "numberOfBytes": "20"
      },
      "t_mapping(t_address,t_struct(Person)146_storage)": {
        "encoding": "mapping",
        "key": "t_address",
        "label": "mapping(address => struct Identification.Person)",
        "numberOfBytes": "32",
        "value": "t_struct(Person)146_storage"
      },
      "t_string_storage": {
        "encoding": "bytes",
        "label": "string",
        "numberOfBytes": "32"
      },
      "t_struct(Person)146_storage": {
        "encoding": "inplace",
        "label": "struct Identification.Person",
        "members": [
          {
            "astId": 141,
            "contract": "contracts/Identification.sol:Identification",
            "label": "lastName",
            "offset": 0,
            "slot": "0",
            "type": "t_string_storage"
          },
          {
            "astId": 143,
            "contract": "contracts/Identification.sol:Identification",
            "label": "firstName",
            "offset": 0,
            "slot": "1",
            "type": "t_string_storage"
          },
          {
            "astId": 145,
            "contract": "contracts/Identification.sol:Identification",
            "label": "age",
            "offset": 0,
            "slot": "2",
            "type": "t_uint256"
          }
        ],
        "numberOfBytes": "96"
      },
      "t_uint256": {
        "encoding": "inplace",
        "label": "uint256",
        "numberOfBytes": "32"
      }
    }
  }
}